:100000000C94BD050C946E0D0C94470D0C94E505F5
:100010000C94E5050C94E5050C94E5050C94E505B8
:100020000C94E5050C94E5050C94E5050C94E505A8
:100030000C94E5050C94E5050C94E5050C94E50598
:100040000C94A3190C94E5050C94190E0C94F30D63
:100050000C94E5050C94E5050C94E5050C94E50578
:100060000C94130F0C94E505DB40A4A62EAFDA0226
:1000700081DA1281DA02818F2000A1C8D300408D7D
:10008000AED580A800006000000000000000000065
:100090000000000000E00000000000000000000080
:1000A00000000001E000000000000000000000006F
:1000B000000001F00000000000000000000000004F
:1000C0000003F0000000000000000000000000003D
:1000D00007F0000000000000000000000000000722
:1000E000F8000000000000000000000000000FF811
:1000F00000000003C0007E000001E0007F0FF80058
:10010000000003C000FE000001E000FFEFF8000067
:100110000003C000FE000001E000FFFFF800000047
:1001200003C000F00000000F007FFE7FC00000034E
:10013000C000F00000000F003FFE7FF83FF1FBCF52
:10014000FCFEF3BC3DEFE01FFE7FFF7FFBFFDFFE09
:10015000FEFFBC3DEFE01FC6FFFF7FFBFFDFFEFEA3
:10016000FFBC3DEFE00FE3C7FE787BC3DE1EF0FF70
:10017000BC3DEF0007FF87FC787BC3DE1EF0F83C38
:100180003DEF0001FFFFF0007BC3C01EF0F03C3DDF
:10019000EF0001F37FE03FFBC3CFFEF0F03C3DEF0B
:1001A0000003E33F807FFBC3DFFEF0F03C3DEF0048
:1001B00007E73C00787BC3DE1EF0F03C3DEF000714
:1001C000FFBE00787BC3DE1EF0F03C3DEF0007FF72
:1001D000FE00787BC3DE1EF0F03C3DEF000FFFFE1B
:1001E000007FFBFFDFFEF0F03FFDEFE00FFFFF00C1
:1001F0007FFBFFDFFEF0F03FFDEFE00FF9FF003E79
:1002000079F9CF9EF0F01F3DE7E01FF1FF000000FD
:100210000000000000000000001F80FF007FFFFFC3
:10022000FFFFFFFFFFFFFFE01C007F007FFFFFFFDE
:10023000FEB46D888D18E000001F007FFFFFFFFEF9
:1002400095AD7DB577E000000F007FFFFFFFFEA5B5
:10025000AD9D8D19E0000006007FFFFFFFFEB5ADEC
:10026000EDB57EE00000000000018000000000000D
:1002700000000000038000000000000000000007F4
:10028000C000000000000000000007C000000000E7
:1002900000000000000FC00000000000000000008F
:1002A0001FE00000000000000000001FE000000050
:1002B0000000000000003FE000000000000000001F
:1002C000003FF00000000000000000007FF0000090
:1002D00000000000001FF87FF00000000000000098
:1002E0003FFE7FF0000000000000003FFF7FF000B5
:1002F0000000000000001FFFFBE000000000000005
:10030000000FFFF9FFC00000000000000FFFF9FF21
:10031000F800000000000007FFF1FFFF00000000F0
:10032000000003FC73FFFF80000000000001FE3F9F
:10033000FFFF80000000000000FF1E0FFF00000014
:10034000000000007FFE1FFC000000000000003FD6
:10035000FFFFF8000000000000000FDFFFE00000DA
:1003600000000000001F19FFC00000000000000096
:100370003F3CFF00000000000000007E7CF8000011
:100380000000000000007FFE7C0000000000000074
:1003900000FFFFFC0000000000000000FFFFFE0067
:1003A00000000000000000FFFFFE00000000000051
:1003B0000001FFEFFE0000000000000001FFCFFE83
:1003C0000000000000000003FF07FE000000000026
:1003D000000003FC07FE0000000000000003F00323
:1003E000FE00000000000000018000FE0000000090
:1003F0000000000000007E0000000000000000007F
:10040000003E000000000000000000000C000000A2
:10041000000000078000FC000003C000000007800F
:1004200001FC000003C0000000078001FC00000385
:10043000C0000000078001E00000001E000000076F
:100440008001E00000001E007FE3F79FF9FDE778E0
:100450007BDFC0FFF7FFBFFDFDFF787BDFC0FFF74D
:10046000FFBFFDFDFF787BDFC0F0F787BC3DE1FFFC
:10047000787BDE00F0F787BC3DE1F0787BDE0000A2
:10048000F787803DE1E0787BDE007FF7879FFDE125
:10049000E0787BDE00FFF787BFFDE1E0787BDE00E0
:1004A000F0F787BC3DE1E0787BDE00F0F787BC3DEC
:1004B000E1E0787BDE00F0F787BC3DE1E0787BDEB1
:1004C00000FFF7FFBFFDE1E07FFBDFC0FFF7FFBFED
:1004D000FDE1E07FFBDFC07CF3F39F3DE1E03E7B8D
:1004E000CFC00000000000000000000000FFFFFF80
:1004F000FFFFFFFFFFFFFFC0FFFFFFFFFD68DB11F6
:100500001A31C0FFFFFFFFFD2B5AFB6AEFC0FFFF50
:10051000FFFFFD4B5B3B1A33C0FFFFFFFFFD6B5B33
:10052000DB6AFDC03D3D3D3D3D3D3D3D3D3D3D3DED
:100530003D3D3D3D3D3D3D3D3D3D3D3D3D3D3D3DEB
:100540003D3D3D3D3D3D3D3D3D003D3D3D3D3D2035
:100550004C6F772D636F737420536F7573205669DA
:10056000646520436F6F6B6572203D3D3D3D3D00EE
:100570003D3D3D3D3D3D3D3D3D3D3D3D3D3D3D3DAB
:100580003D3D3D3D3D3D3D3D3D3D3D3D3D3D3D3D9B
:100590003D3D3D3D3D005353443133303620616C89
:1005A0006C6F636174696F6E206661696C6564006D
:1005B00046696E697368656420636F6F6B696E6707
:1005C000210046696E697368656420636F6F6B69AB
:1005D0006E672100557365722077616E74732064B5
:1005E00075726174696F6E20617420005573657255
:1005F0002077616E74732074656D706572617475B7
:10060000726520617420002200FF210000000000BC
:10061000240027002A0000000000250028002B00ED
:100620000000000023002600290004040404040440
:100630000404020202020202030303030303010291
:100640000408102040800102040810200102040860
:100650001020000000080002010000030407000051
:10066000000000000000000103070F1F3F7F008013
:10067000C0E0F0F8FCFE00000000003E5B4F5B3E77
:100680003E6B4F6B3E1C3E7C3E1C183C7E3C181C57
:10069000577D571C1C5E7F5E1C00183C1800FFE74E
:1006A000C3E7FF0018241800FFE7DBE7FF30483AF4
:1006B000060E2629792926407F050507407F052556
:1006C0003F5A3CE73C5A7F3E1C1C08081C1C3E7FDE
:1006D00014227F22145F5F005F5F06097F017F00A5
:1006E0006689956A606060606094A2FFA2940804C5
:1006F0007E040810207E201008082A1C08081C2AE6
:1007000008081E101010100C1E0C1E0C30383E383D
:1007100030060E3E0E06000000000000005F0000E4
:100720000007000700147F147F14242A7F2A122355
:100730001308646236495620500008070300001C65
:100740002241000041221C002A1C7F1C2A08083E6E
:100750000808008070300008080808080000606081
:100760000020100804023E5149453E00427F4000EF
:1007700072494949462141494D331814127F1027C7
:10078000454545393C4A4949314121110907364916
:10079000494936464949291E0000140000004034EA
:1007A00000000008142241141414141400412214EF
:1007B0000802015909063E415D594E7C1211127C16
:1007C0007F494949363E414141227F4141413E7F77
:1007D000494949417F090909013E414151737F0857
:1007E00008087F00417F41002040413F017F0814FD
:1007F00022417F404040407F021C027F7F0408105E
:100800007F3E4141413E7F090909063E4151215E3B
:100810007F09192946264949493203017F01033FCF
:100820004040403F1F2040201F3F4038403F63145E
:1008300008146303047804036159494D43007F4160
:1008400041410204081020004141417F040201029D
:1008500004404040404000030708002054547840C2
:100860007F284444383844444428384444287F3856
:100870005454541800087E090218A4A49C787F08D8
:1008800004047800447D40002040403D007F102853
:10089000440000417F40007C047804787C08040414
:1008A000783844444438FC1824241818242418FCAC
:1008B0007C08040408485454542404043F44243C51
:1008C0004040207C1C2040201C3C4030403C4428C0
:1008D0001028444C9090907C4464544C440008365A
:1008E00041000000770000004136080002010204C8
:1008F000023C2623263C1EA1A161123A4040207AE8
:10090000385454555921555579412254547842212F
:100910005554784020545579400C1E527212395566
:100920005555593954545459395554545800004563
:100930007C410002457D420001457C407D12111240
:100940007DF0282528F07C545545002054547C54D3
:100950007C0A097F4932494949323A4444443A328F
:100960004A4848303A4141217A3A42402078009D35
:10097000A0A07D3D4242423D3D4040403D3C24FFE1
:100980002424487E4943662B2FFC2F2BFF0929F690
:1009900020C0887E090320545479410000447D41E1
:1009A0003048484A32384040227A007A0A0A727D3A
:1009B0000D19317D2629292F282629292926304855
:1009C0004D4020380808080808080808382F10C8C3
:1009D000ACBA2F102834FA00007B000008142A1447
:1009E0002222142A14085500550055AA55AA55AAC2
:1009F000FF55FF55FF000000FF00101010FF00140E
:100A00001414FF001010FF00FF1010F010F0141469
:100A100014FC001414F700FF0000FF00FF1414F48E
:100A200004FC141417101F10101F101F1414141F8F
:100A300000101010F0000000001F101010101F1008
:100A4000101010F010000000FF1010101010101007
:100A50001010FF10000000FF140000FF00FF000056
:100A60001F10170000FC04F414141710171414F4CA
:100A700004F40000FF00F714141414141414F70005
:100A8000F7141414171410101F101F141414F41456
:100A90001010F010F000001F101F0000001F1400C5
:100AA0000000FC140000F010F01010FF10FF1414F0
:100AB00014FF141010101F00000000F010FFFFFFC3
:100AC000FFFFF0F0F0F0F0FFFFFF0000000000FF7C
:100AD000FF0F0F0F0F0F3844443844FC4A4A4A3482
:100AE0007E02020606027E027E0263554941633899
:100AF00044443C04407E201E2006027E020299A54A
:100B0000E7A5991C2A492A1C4C7201724C304A4DA7
:100B10004D303048784830BC625A463D3E494949DC
:100B2000007E0101017E2A2A2A2A2A44445F444485
:100B300040514A444040444A51400000FF0103E014
:100B400080FF000008086B6B083612362436060F4B
:100B5000090F06000018180000001010003040FFB8
:100B60000101001F01011E00191D1712003C3C3C31
:100B70003C00000000005921ED1911241FBECFEFE9
:100B8000D8E0DEBFCDBF23E0A2EAB1E001C01D92F4
:100B9000A035B207E1F711E0A0E0B1E0EAE0FDE442
:100BA00002C005900D92A23AB107D9F715E0CCEB3F
:100BB000D5E004C02197FE010E946F24CB3BD107F2
:100BC000C9F70E94FC190C9478260C940000089533
:100BD000CF92DF92EF92FF920F931F93CF93DF9309
:100BE0006C017A018B01C0E0D0E0CE15DF0581F009
:100BF000D8016D918D01D601ED91FC910190F081AC
:100C0000E02DC6010995892B11F02196EECF7E01CA
:100C1000C701DF91CF911F910F91FF90EF90DF906F
:100C2000CF900895FC01538D448D252F30E0842F03
:100C300090E0821B930B541710F0CF960895019704
:100C40000895FC01918D828D981761F0828DDF01EE
:100C5000A80FB11D5D968C91928D9F5F9F73928FAF
:100C600090E008958FEF9FEF0895FC01918D828DA4
:100C7000981731F0828DE80FF11D858D90E0089571
:100C80008FEF9FEF0895FC01918D228D892F90E0C9
:100C9000805C9F4F821B91098F739927089589E586
:100CA00092E00E94430621E0892B09F420E0822F84
:100CB0000895FC01848DDF01A80FB11DA35ABF4F19
:100CC0002C91848D90E001968F739927848FA6894B
:100CD000B7892C93A089B1898C9180648C93938D72
:100CE000848D981306C00288F389E02D80818F7D62
:100CF00080830895EF92FF920F931F93CF93DF931A
:100D0000EC0181E0888F9B8D8C8D981305C0E8895C
:100D1000F989808185FD24C0F62E0B8D10E00F5FD0
:100D20001F4F0F731127E02E8C8DE8120CC00FB6E9
:100D300007FCFACFE889F989808185FFF5CFCE01DC
:100D40000E945906F1CF8B8DFE01E80FF11DE35A89
:100D5000FF4FF0820B8FEA89FB898081806207C098
:100D6000EE89FF896083E889F989808180648083C6
:100D700081E090E0DF91CF911F910F91FF90EF9074
:100D80000895CF93DF93EC01888D8823C9F0EA8919
:100D9000FB89808185FD05C0A889B9898C9186FD74
:100DA0000FC00FB607FCF5CF808185FFF2CFA88971
:100DB000B9898C9185FFEDCFCE010E945906E7CF0E
:100DC000DF91CF91089580E090E0892B29F00E9477
:100DD0004F0681110C9400000895FC0177FDB9C005
:100DE00080859185681779070CF0B3C057FDB1C0B5
:100DF00082859385481759070CF0089585898230BC
:100E000079F484819581DC01A61BB70BBD0161508B
:100E1000710986819781DC01A41BB50BAD010EC061
:100E2000833009F084C064277527CA018627972775
:100E30006827792746815781481B590B4150510932
:100E40002130310531F048F12230310509F44AC032
:100E50000895CA0157FD07969C01A3E03595279593
:100E6000AA95E1F7A481B5812A9FC0012B9F900D1F
:100E70003A9F900D1124680F791F068CF78DE02D95
:100E8000E60FF71F4770552781E090E001C0880FFB
:100E90004A95EAF79081892B48C0CA0157FD079609
:100EA0009C0193E0359527959A95E1F7A481B5814A
:100EB0002A9FC0012B9F900D3A9F900D1124680F1F
:100EC000791F068CF78DE02DE60FF71F4770552729
:100ED00081E090E001C0880F4A95EAF78095908103
:100EE000892323C0CA0157FD07969C0183E03595ED
:100EF00027958A95E1F7A481B5812A9FC0012B9F90
:100F0000900D3A9F900D1124680F791F068CF78D74
:100F1000E02DE60FF71F4770552781E090E001C0F4
:100F2000880F4A95EAF79081892780830895813058
:100F300009F086CF6427752746275727642775272A
:100F400084819581DC01A61BB70BBD01615071093D
:100F500077CF08950895FC016370658B8481958136
:100F600026813781613039F0633029F0918780879D
:100F70003387228708953187208793878287089552
:100F80006F927F928F929F92AF92BF92CF92DF9299
:100F9000EF92FF920F931F93CF93DF93EC014B01DE
:100FA0005A0169013801E881F9810284F385E02D55
:100FB0000995E881F9810288F389E02D870196017E
:100FC000A501B401CE010995A501460D571D41505B
:100FD0005109E881F9810288F389E02D9601B40175
:100FE000CE010995E881F9810088F189E02D93010E
:100FF000A501B401CE010995C80CD91CB6016150F8
:101000007109E881F9810088F189E02D9301A5013A
:10101000CE010995E881F9810688F789E02DCE0196
:10102000DF91CF911F910F91FF90EF90DF90CF90C4
:10103000BF90AF909F908F907F906F9009948F9208
:101040009F92AF92BF92CF92DF92EF92FF920F9357
:101050001F93CF93DF934C016B015A01E901DC012F
:10106000ED91FC916217730781F40417150724F4BE
:101070008B2D5801042F182F0A191B0998012F5F77
:101080003F4F048CF58DE02D12C04017510709F534
:101090002617370724F48D2D6901C62FD82F9E01FE
:1010A0002C193D092F5F3F4F068CF78DE02D8701EE
:1010B000A501B601C4010995DF91CF911F910F9150
:1010C000FF90EF90DF90CF90BF90AF909F908F9068
:1010D00008950284F385E02D0995D401ED91FC91EA
:1010E0000488F589E02D9E01A501B601C40109958A
:1010F000D401ED91FC910688F789E02DC401DF91C0
:10110000CF911F910F91FF90EF90DF90CF90BF9004
:10111000AF909F908F900994EF92FF920F931F933F
:10112000DC011A960D911C911B9718962D913C91FC
:101130001997ED91FC9100A0F1A1E02D7B0140E019
:1011400050E060E070E009951F910F91FF90EF90E3
:1011500008954F925F926F927F928F929F92AF927B
:10116000BF92CF92DF92EF92FF920F931F93CF9394
:10117000DF936C012B015A0139014801DC01ED912B
:10118000FC910284F385E02D0995E201640C751C45
:10119000D601ED91FC91C615D7055CF40088F18964
:1011A000E02D87019401A501BE01C6010995219694
:1011B000EFCF0688F789E02DC601DF91CF911F910F
:1011C0000F91FF90EF90DF90CF90BF90AF909F90E6
:1011D0008F907F906F905F904F9009948F929F9225
:1011E000AF92BF92CF92DF92EF92FF920F931F9335
:1011F000CF93DF93EC015B014A016901E881F9813A
:101200000284F385E02D099595012C0D3D1D21509B
:101210003109E881F9810488F589E02D780184019C
:10122000A401B501CE010995E881F9810688F78905
:10123000E02DCE01DF91CF911F910F91FF90EF90A4
:10124000DF90CF90BF90AF909F908F9009948F9236
:101250009F92AF92BF92CF92DF92EF92FF920F9345
:101260001F93CF93DF93EC015B014A016901780181
:10127000E881F9810284F385E02D0995C80CD91C19
:10128000860101501109E881F9810488F589E02D72
:101290009501A401B501CE010995E881F98106887F
:1012A000F789E02DCE01DF91CF911F910F91FF9033
:1012B000EF90DF90CF90BF90AF909F908F90099468
:1012C0000895EF92FF920F931F93DC01ED91FC9133
:1012D00000A0F1A1E02D09951F910F91FF90EF90D3
:1012E00008950F931F93DC01ED91FC91068CF78D0F
:1012F000E02D09951F910F9108950F931F93DC0125
:10130000ED91FC91048CF58DE02D09951F910F91C5
:101310000895DC01ED91FC910084F185E02D0994A4
:101320002F923F924F925F926F927F928F929F92F5
:10133000AF92BF92CF92DF92EF92FF920F931F93E3
:10134000CF93DF9300D000D000D0CDB7DEB72C0113
:101350007E836D836A015901C801FC82EB824801DA
:10136000841A950A97FE03C09194819491083501DF
:101370002D813E81621A730A77FE03C071946194D5
:101380007108681479045CF43A2D2B2D5C01832FCD
:10139000922F3D812E81DE82CD82C32ED22EAD8151
:1013A000BE81AA16BB065CF43C2D2D2D6C01832F4B
:1013B000922F3D812E81BE82AD82A32EB22E850159
:1013C0002D813E81021B130B1C012C183D0837FE9A
:1013D00003C0319421943108780117FF03C03FEF17
:1013E000E31AF30AF594E794C816D9062CF08FEFA8
:1013F0009FEF9A83898304C0A1E0B0E0BA83A983F8
:101400002D813E81A216B30624F1D201ED91FC910B
:101410000484F585E02D2B813C816814790424F443
:101420004D815E81B60103C0A6016D817E81C2013E
:101430000995E218F308F7FE06C029813A81C20E29
:10144000D31EE00EF11E8D819E8101969E838D83B9
:10145000D7CF26960FB6F894DEBF0FBECDBFDF9173
:10146000CF911F910F91FF90EF90DF90CF90BF90A1
:10147000AF909F908F907F906F905F904F903F9034
:101480002F90089585ED8093BC008091BC0084FD71
:10149000FCCF1092340208954091C401262F30E011
:1014A000240F311D21323105DCF420913402243027
:1014B000C9F4FC0180E090E0861758F43091C40133
:1014C0002191DC01AC55BE4FA30FB11D2C930196A9
:1014D000F3CF8091C401680F6093C40180E0089548
:1014E00081E0089582E0089581E090E03091E80184
:1014F0002091E701321710F480E090E091958195FA
:10150000910908958091E8019091E701891730F4DD
:101510008F5F8093E80180E090E008958FEF9FEF68
:1015200008958091E70190E02091E801821B9109E4
:101530000895CF92DF92EF92FF920F931F93CF9374
:10154000DF937C01CB018A0120913502222389F0AF
:10155000EB016B01C40ED51ECC15DD0569F0699158
:10156000D701ED91FC910190F081E02DC701099523
:10157000F3CF642F0E944C0AC801DF91CF911F91D5
:101580000F91FF90EF90DF90CF900895CF93DF936E
:101590001F92CDB7DEB76983209135022223D1F0A7
:1015A00020915802203240F021E030E0FC013383EA
:1015B000228380E090E015C080913602E82FF0E0B1
:1015C000E95CFD4F998190838F5F80933602809311
:1015D000580205C061E0CE0101960E944C0A81E0EC
:1015E00090E00F90DF91CF910895089580E090E012
:1015F00008950E945C260F931F93CF93DF93EC0115
:1016000088819981009729F02A813B812617370725
:1016100088F48B016F5F7F4F0E949625009761F0E1
:10162000998388831B830A832C813D81232B11F4AA
:10163000FC01108281E001C080E0DF91CF911F9119
:101640000F9108950F931F93CF93DF93DC0155966D
:10165000EC915597E23071F0E330E9F0E13079F543
:10166000FB0114960D90BC91A02DA41BB50BA21BE1
:10167000B30B18C0EC01EC81FD81E61BF70BBF0139
:1016800061507109EE81FF81DF01A41BB50BAD0133
:10169000421B530B14C0DA01EC01EE81FF81E61B03
:1016A000F70B3197F7FD0DC0EC014E815F81E41718
:1016B000F5073CF4AF01BD010E94781702C00E94FB
:1016C000DF17DF91CF911F910F9108950F931F9313
:1016D000DC015596EC915597E23061F0E33009F169
:1016E000E13081F51496ED91FC911597E41BF50B13
:1016F000319723C0DC011496ED91FC911597DF0121
:10170000A61BB70BBD01DC011696ED91FC91179756
:10171000DF01A41BB50BAD0141505109621B730BD6
:1017200011C0FA01DC0116964D915C911797DA0110
:10173000A61BB70BBD01621B730BAB01BF010E945F
:10174000DF170CC057FD0AC0DC011696ED91FC9125
:1017500017974E175F0714F40E9478171F910F9187
:101760000895AF92BF92CF92EF92FF920F931F9383
:10177000CF93DF93EC01262F888D998D009709F088
:1017800040C06A3059F41D861C862C898E859F8541
:1017900038E0239F800D911D112441C06D3009F464
:1017A000AAC08E898823C1F03C898C859D8546E03E
:1017B000349F800D911D112448855985481759077C
:1017C0005CF41D861C868E859F8548E0349F800DC5
:1017D000911D11249F878E87EA88FB8808891989C3
:1017E0004E855F856C857D85CC88CE010E945E1517
:1017F0002C898C859D8536E0239F800D911D1124B9
:1018000042C06A3079F41D861C862C89FC0136960C
:10181000E4918E859F852E9F800D911D11249F87B9
:101820008E8769C06D3009F466C0FC01349634912E
:10183000631708F460C03196E491E61708F45BC0C2
:10184000FC01329665917491422F50E0431B51097F
:1018500037E0349F5001359FB00C1124A60EB71EFF
:10186000F501329634913196E491332311F0E11170
:101870000DC0F5013496E4912C898C859D85E29FFD
:10188000800D911D11249D878C8735C0F5013596FB
:1018900044915E89552311F16C89E32FF0E0E40F48
:1018A000F11D47FDFA956E9FD0016F9FB00D112479
:1018B0004C855D854A0F5B1FE885F985E417F507C0
:1018C0006CF41D861C86FC013696E4918E859F85FE
:1018D0006E9F800D911D11249F878E87EA88FB885B
:1018E000088919894E855F856C857D85CC88CE01F8
:1018F0000E945E15BECF81E090E0DF91CF911F91F5
:101900000F91FF90EF90CF90BF90AF900895CF933D
:10191000DF9382E00E949418EC0183E00E94941807
:10192000CC0FDD1F8C2B9D2B2091A2013091A301A8
:10193000220F331F220F331F282B392B2D30310557
:1019400069F44091E9015091EA016091EB017091D5
:10195000EC014F5F5F4F6F4F7F4F0FC02E3031054F
:10196000A1F44091E9015091EA016091EB0170917D
:10197000EC0141505109610971094093E90150930B
:10198000EA016093EB017093EC019093A3018093C3
:10199000A201DF91CF910895EF92FF920F931F93D1
:1019A000CF93DF936115710511F480E01CC04115E0
:1019B0005105C1F07B01EC018C819D818A01080FEA
:1019C000191FB801CE010E94FB0A882371F32881F8
:1019D00039818C819D81B701820F931F0E947126EE
:1019E0001D830C8381E0DF91CF911F910F91FF90B8
:1019F000EF900895CF93DF93EC0188819981009750
:101A000011F00E940D25198218821D821C821B82F2
:101A10001A82DF91CF910895EF92FF920F931F9357
:101A2000CF93DF93EC017B018A01BA010E94FB0A8C
:101A3000811104C0CE010E94FA0C07C01D830C83E3
:101A4000B701888199810E947126CE01DF91CF91E3
:101A50001F910F91FF90EF900895FB01DC0111960B
:101A60001C921E9213961C921E92129715961C920F
:101A70001E9214978617970749F06081718161154E
:101A8000710521F0448155810C940C0D08951F922D
:101A90000F920FB60F9211242F933F934F935F93A2
:101AA0006F937F938F939F93AF93BF93EF93FF9326
:101AB000E0910201F09103010995FF91EF91BF912F
:101AC000AF919F918F917F916F915F914F913F91D6
:101AD0002F910F900FBE0F901F9018951F920F928D
:101AE0000FB60F9211242F933F934F935F936F93F1
:101AF0007F938F939F93AF93BF93EF93FF93E09167
:101B00000001F09101010995FF91EF91BF91AF9113
:101B10009F918F917F916F915F914F913F912F9105
:101B20000F900FBE0F901F9018956115710579F0F9
:101B3000FB0101900020E9F73197AF01461B570BDD
:101B4000DC01ED91FC910280F381E02D099480E0AD
:101B500090E008958F929F92AF92BF92EF92FF9282
:101B60000F931F93CF93DF93CDB7DEB7A1970FB637
:101B7000F894DEBF0FBECDBF7C01FA01CB0119A2E4
:101B8000223008F42AE08E010F5D1F4F822E912C27
:101B9000A12CB12CBF01A50194010E944D24F90193
:101BA000CA01015011096A3014F4605D01C0695C1A
:101BB000D8016C93232B242B252B61F7B801C70187
:101BC0000E94950DA1960FB6F894DEBF0FBECDBF53
:101BD000DF91CF911F910F91FF90EF90BF90AF9049
:101BE0009F908F9008951F920F920FB60F9211241D
:101BF0002F933F934F935F936F937F938F939F9315
:101C0000AF93BF93EF93FF9389E592E00E9459064B
:101C1000FF91EF91BF91AF919F918F917F916F91C4
:101C20005F914F913F912F910F900FBE0F901F909A
:101C300018951F920F920FB60F9211242F938F9326
:101C40009F93EF93FF93E0916902F0916A02808184
:101C5000E0916F02F091700282FD12C0908180913C
:101C600072028F5F8F7320917302821751F0E0919F
:101C70007202F0E0E75AFD4F958F8093720201C027
:101C80008081FF91EF919F918F912F910F900FBEC7
:101C90000F901F90189508958EBD00000DB407FE9B
:101CA000FDCF8EB508951F93CF93DF93FC01848DF4
:101CB000958D009729F1162FEF0120A131E0309387
:101CC0003502209357021092360210925802DC011E
:101CD000ED91FC910190F081E02D60E009958C8DF3
:101CE0009D8DDC01ED91FC910190F081E02D612F43
:101CF00009958C8D9D8DDF91CF911F910C9488104B
:101D0000A4A5B5A59C9182A9809589238C93828DE9
:101D1000938D892B31F0862FDF91CF911F910C94F9
:101D20004C0E28E030E080E8A0A5B1A590A9462F90
:101D3000482319F04C91942B03C04C919095942317
:101D40009C93A2A5B3A54C9191A9942B9C93A2A579
:101D5000B3A54C9191A9909594239C93869521507D
:101D6000310911F7DF91CF911F9108958CBD9DBD71
:101D700008951F93CF93DF93EC01162F8C8D9D8DCB
:101D8000892BB1F02EA93FA948AD59AD60E074E2AE
:101D900084EF90E00E944D24DA01C9014097A10927
:101DA000B109B695A795979587958093B8000FC010
:101DB0008A8D9B8D892B21F08CA99DA90E94B60E3E
:101DC000EEA5FFA590818BA98095892380831111B1
:101DD00002C066EA01C067EACE010E94530E8C8DF4
:101DE0009D8D892BB1F02AAD3BAD4CAD5DAD60E072
:101DF00074E284EF90E00E944D24DA01C90140971B
:101E0000A109B109B695A795979587958093B800D4
:101E100006C0EEA5FFA590818BA9892B8083DF9159
:101E2000CF911F9108951F920F920FB60F92112418
:101E30002F933F934F935F936F937F938F939F93D2
:101E4000AF93BF93EF93FF938091B900887F803663
:101E500009F49CC068F5883209F45BC090F48031C5
:101E600009F454C038F4882309F4F2C0883009F426
:101E70004DC0F2C0883109F44CC0803209F45DC015
:101E8000EBC0803409F468C048F4803309F455C0CD
:101E9000883309F0E1C080933202D4C0803509F460
:101EA0004FC0883509F45DC0883409F0D5C0D2C070
:101EB000883909F4C3C0A8F4883709F467C038F436
:101EC000883609F463C0803709F460C0C5C088381B
:101ED00009F4B4C0803909F45FC0803809F0BCC08F
:101EE0005BC0803B09F484C038F4803A09F466C0D2
:101EF000883A09F47DC0B0C0803C09F4A3C0883C96
:101F000009F4A0C0883B09F486C0A6C080910F02E6
:101F100010C09091310280913002981770F5E091D5
:101F2000310281E08E0F80933102F0E0E05FFD4FDF
:101F300080818093BB0085EC82C0809332028AC08E
:101F4000E091310281E08E0F809331028091BB00DD
:101F5000F0E0E05FFD4F808390913102809130028C
:101F60006AC0E091310281E08E0F8093310280914E
:101F7000BB00F0E0E05FFD4F808380913302811170
:101F800069C081E080930E0284EA5DC083E08093A3
:101F900034021092E601CFCF8091E601803208F042
:101FA0004DC0E091E60181E08E0F8093E6018091C3
:101FB000BB00F0E0EA53FE4F8083BDCF85EC8093F9
:101FC000BC00109234028091E601803230F4E0913E
:101FD000E601F0E0EA53FE4F10826091E60170E006
:101FE00086EC91E0E0E0F0E009951092E60134C063
:101FF00084E0809334021092C5011092C401E0E0A5
:10200000F0E009958091C401811105C081E08093C1
:10201000C4011092A401E091C50181E08E0F80936C
:10202000C501F0E0EC55FE4F80818093BB0090919C
:10203000C5018091C401981708F47DCF85E880938D
:10204000BC000AC085EC8093BC001092340204C02E
:10205000109232020E94420AFF91EF91BF91AF911C
:102060009F918F917F916F915F914F913F912F91B0
:102070000F900FBE0F901F9018950F931F93CF9343
:10208000DF938C01C0E0D0E0F801EC0FFD1F6491FC
:10209000662341F089E592E00E947A06892B11F0CF
:1020A0002196F2CFCE01DF91CF911F910F9108952C
:1020B000CF93DF930E943D10EC016EE871E089E55B
:1020C00092E00E94950D8C0F9D1FDF91CF91089596
:1020D0002091FF0230910003C901079697FD0796F2
:1020E00023E0959587952A95E1F72091FD0230919F
:1020F000FE02829FA001839F500D929F500D1124DC
:1021000060E070E080911703909118030C946A26A8
:1021100030915802313208F04BC080913402811165
:10212000FCCF9091570222E02093340221E02093CB
:1021300033022FEF2093320210923102309330029B
:10214000E7E3F2E0A0E1B2E020E0321721F04191B4
:102150004D932F5FFACF10920F0220910F02990F2B
:10216000922B90930F0290910E02913061F4109295
:102170000E0290910F029093BB009091BC0093FDD2
:10218000F8CF95EC01C095EE9093BC00909134028D
:102190009230E1F3909132029F3F79F080913202C8
:1021A000803241F080913202803331F084E005C00A
:1021B00081E003C082E001C083E0109236021092F9
:1021C0005802109235020895DF92EF92FF920F931A
:1021D0001F93CF93DF93D82ED92FC62F809115034D
:1021E00090911603009709F454C02091190331E02F
:1021F0003093350220935702109236021092580203
:10220000DC01ED91FC910190F081E02D60E00995F9
:10221000ED2CFD2E11E0D1E0809115039091160375
:10222000CC2371F11032C8F00E94881080911903FC
:10223000D0933502809357021092360210925802C2
:102240008091150390911603DC01ED91FC910190B2
:10225000F081E02D60E0099511E0809115039091E7
:102260001603F7016491DC01ED91FC910190F0817E
:10227000E02D09951F5FC150BFEFEB1AFB0ACCCFD1
:10228000DF91CF911F910F91FF90EF90DF900C9411
:102290008810E0912503F0912603908180912B0313
:1022A0008095892380830D2D1D2FCC2309F439C0FF
:1022B000F80184912091130330911403232B31F002
:1022C0000E944C0EC1500F5F1F4FEFCF28E030E04F
:1022D00040E8E0912103F091220390912903582FC7
:1022E000542319F05081952B03C05081909595236C
:1022F0009083E0912303F0912403508190912A036D
:10230000952B9083E0912303F091240350819091C9
:102310002A03909595239083469521503109C9F65B
:10232000D1CFDF91CF911F910F91FF90EF90DF9070
:102330000895EF92FF920F931F93CF93DF938091B5
:10234000150390911603892BD1F020912F03309122
:102350003003409131035091320360E074E284EF26
:1023600090E00E944D24DA01C9014097A109B1090A
:10237000B695A795979587958093B80016C08091DC
:10238000130390911403892B31F080912D039091C8
:102390002E030E94B60EE0912703F091280390814E
:1023A00080912C0380958923808365E087E096E007
:1023B0000E94E4106091FD02615089EF92E00E945A
:1023C000530E2091FF0230910003C901079697FD3B
:1023D000079633E0959587953A95E1F72091FD02B0
:1023E0003091FE02829F8001839F100D929F100DFD
:1023F0001124C0911703D091180380911503909177
:1024000016030C0F1D1F009709F44CC020911903EF
:1024100031E0309335022093570210923602109229
:102420005802DC01ED91FC910190F081E02D60E417
:102430000995FF24F394EE24E39480911503909181
:1024400016030C171D0759F1BFE1BF15D0F40E9408
:10245000881080911903E092350280935702109200
:102460003602109258028091150390911603DC01F8
:10247000ED91FC910190F081E02D60E40995FF243D
:10248000F39480911503909116036991DC01ED910D
:10249000FC910190F081E02D0995F394CECF0E943C
:1024A000881041C0E0912503F0912603908180912E
:1024B0002B03892B80830C171D07A9F1899120918B
:1024C000130330911403232B19F00E944C0EF3CF09
:1024D00028E030E040E8E0912103F0912203909160
:1024E0002903582F542319F05081952B03C0508194
:1024F000909595239083E0912303F09124035081DC
:1025000090912A03952B9083E0912303F09124036B
:10251000508190912A039095952390834695215060
:102520003109C9F6C8CF8091150390911603892B04
:10253000D1F0209133033091340340913503509111
:10254000360360E074E284EF90E00E944D24DA01EB
:10255000C9014097A109B109B695A79597958795A7
:102560008093B80017C0E0912703F0912803908171
:1025700080912C03892B8083809113039091140305
:10258000892B41F0DF91CF911F910F91FF90EF9038
:102590000C944B0EDF91CF911F910F91FF90EF9014
:1025A00008953F924F925F926F927F928F929F9287
:1025B000AF92BF92CF92DF92EF92FF920F931F9351
:1025C000CF93DF9300D000D000D0CDB7DEB72C0181
:1025D0003B014A015901C901079697FD07969C01E5
:1025E00093E0359527959A95E1F73C832B83C12C91
:1025F000D12CE12CF12C312CC3018E0D9F1D9A831F
:102600008983E016F106C4F51E821D822D813E816C
:102610002A153B054CF5C90187709927892B11F0C4
:10262000330C0EC0ED81FE81F7FD379683E0F59502
:10263000E7958A95E1F7EC0DFD1DE80DF91D349045
:1026400037FE0CC021E030E049815A816D817E81E6
:10265000640D751D89EF92E00E9489098D819E812C
:1026600001969E838D83D2CF9FEFE91AF90A2B81C1
:102670003C81C20ED31EC0CF26960FB6F894DEBFA3
:102680000FBECDBFDF91CF911F910F91FF90EF90C3
:10269000DF90CF90BF90AF909F908F907F906F9082
:1026A0005F904F903F900895FC01808191810C9440
:1026B0000D25DB0114964D915C9115976D917C91E0
:1026C000DC01ED91FC910280F381E02D099461150C
:1026D000710551F0FB0101900020E9F73197AF013E
:1026E000461B570B0C94CC0C80E00895EF92FF92A0
:1026F0000F931F93CF93DF93CDB7DEB761970FB6DC
:10270000F894DEBF0FBECDBF8C01CB01F801118262
:10271000108213821282158214824AE09E012F5F7A
:102720003F4F7901B9010E940122F7010190002079
:10273000E9F73197AF014E195F09B701C8010E944F
:102740000C0D61960FB6F894DEBF0FBECDBFDF91C2
:10275000CF911F910F91FF90EF900895CF93DF934A
:10276000EC0144E050E061E971E00E94CC0C811181
:1027700003C0CE010E94FA0CCE01DF91CF910895E3
:10278000EF92FF920F931F93CF93DF93CDB7DEB7F6
:1027900062970FB6F894DEBF0FBECDBF8C01CB01A0
:1027A000F8011182108213821282158214824AE08B
:1027B0009E012F5F3F4F7901B9010E94F621F70179
:1027C00001900020E9F73197AF014E195F09B70179
:1027D000C8010E940C0D62960FB6F894DEBF0FBEC2
:1027E000CDBFDF91CF911F910F91FF90EF90089592
:1027F0004F925F926F927F928F929F92AF92BF9211
:10280000CF92DF92EF92FF92CF936B017C019B01FD
:10281000AC010E944824882319F066E971E01AC0CF
:1028200046015701E894B7F82FEF3FEF4FE75FE716
:10283000C501B4010E944824811112C02FEF3FEF5F
:102840004FE75FE7C501B4010E942B22181644F43C
:102850006AE971E089E592E00E94950D7C017EC0F5
:102860002FEF3FEF4FE75FE4C701B6010E9443241B
:1028700018161CF46EE971E0EDCF2FEF3FEF4FE734
:102880005FECC701B6010E942B2287FDF3CF20E049
:1028900030E0A901C701B6010E942B2287FF0BC0BF
:1028A0006DE289E592E00E947A065C01F7FAF09405
:1028B000F7F8F09402C0A12CB12C2AE037ED43EADE
:1028C0005BE3C701B6010E94A1232B013C010E94DA
:1028D00014246B017C010E9430229B01AC01C301D6
:1028E000B2010E94A0232B013C012AE0B701A601FE
:1028F00089E592E00E94AA0D7C01EA0CFB1C6EE2C5
:1029000089E592E00E947A06E80EF91EC3E0C15004
:1029100029F120E030E040E251E4C301B2010E941D
:1029200091222B013C010E9414244B01A12CB12CBB
:102930002AE0B501A40189E592E00E94AA0DE80E03
:10294000F91EC501B4010E9430229B01AC01C301F4
:10295000B2010E94A0232B013C01D9CF6EE871E0A7
:1029600089E592E00E94950D8E0D9F1DCF91FF90FD
:10297000EF90DF90CF90BF90AF909F908F907F901F
:102980006F905F904F900895EF92FF921F93CF93B7
:10299000DF9310E0C7E0D0E0EE24E394F12C60E098
:1029A0008091F6020E94BD188FE99FE00197F1F730
:1029B00000C000008091F7020E949418892B39F022
:1029C000C7010C2E01C0880F0A94EAF7182B61E0AA
:1029D0008091F6020E94BD188FE99FE00197F1F700
:1029E00000C000002197D8F6812FDF91CF911F9171
:1029F000FF90EF900895833081F028F4813099F0B2
:102A00008230A1F008958730A9F08830B9F0843081
:102A1000D1F4809180008F7D03C0809180008F77FA
:102A200080938000089584B58F7702C084B58F7D30
:102A300084BD08958091B0008F7703C08091B0006D
:102A40008F7D8093B00008953FB7F894809148033C
:102A500090914903A0914A03B0914B0326B5A89BDE
:102A600005C02F3F19F00196A11DB11D3FBFBA2F20
:102A7000A92F982F8827820F911DA11DB11DBC0180
:102A8000CD0142E0660F771F881F991F4A95D1F745
:102A90000895CF93DF93AB01BC012AE089E592E072
:102AA0000E94AA0DEC016EE871E089E592E00E94B7
:102AB000950D8C0F9D1FDF91CF9108952F923F921E
:102AC0004F925F926F927F928F929F92AF92BF923E
:102AD000CF92DF92EF92FF920F931F93CF93DF93EA
:102AE000CDB7DEB76B970FB6F894DEBF0FBECDBF84
:102AF0009B8F8A8F5B011A01D22E1F830E833701B1
:102B0000C982DC0158962D913C91599721153105C8
:102B100009F0E6C018968D919C911997681779076E
:102B20000CF0CDC11A968D919C911B9748175907AF
:102B30000CF0C5C18C2C912CFB0126E0C29EE00D4F
:102B4000F11D1124FB87EA871E161F060CF0B7C182
:102B5000A40183E0440F551F8A95E1F75D874C87F8
:102B6000CA01820D931D181619060CF0A8C15796BC
:102B70008C91811104C05FEA5D1508F4D394AA8D8D
:102B8000BB8DED91FC9111970284F385E02DCD0171
:102B90000995B5E0DB9EC0011124F5013596FF874C
:102BA000EE87BB82AA8225019C012A193B09398B39
:102BB000288BA101485F5F4F5B8B4A8BE889F989BD
:102BC000E40DF51DEA58F94F5491588761013D8293
:102BD0002C82888580FF13C0AA8DBB8DED91FC915E
:102BE000B981B13031F40484F585E02D2E813F8127
:102BF00016C00684F785E02DEE80FF801AC0EE81B6
:102C0000FF81E615F705F1F0AA8DBB8DED91FC91E2
:102C1000B981B13051F40484F585E02D9301A6010A
:102C2000B2018A8D9B8D09950DC00684F785E02D34
:102C30007301840194014C815D816A817B818A8D5D
:102C40009B8D0995E885E695E887FFEFCF1ADF0AA7
:102C50002C813D81280D391D3D832C834A895B8958
:102C6000C416D50609F0B5CF5FEF451A550A8A811B
:102C70009B81880D991D9B838A83AE85BF854A16EB
:102C80005B0609F09BCFEE81FF81E615F70509F49D
:102C9000F4C0EA8DFB8DA081B181F981F13079F426
:102CA000B5016B5F7F4F5096ED91FC915197830179
:102CB00028E030E0A1018A8D9B8D0995DEC06A85F0
:102CC0007B85681979091E96ED91FC911F97730118
:102CD0000C851D859401A1018A8D9B8D0995CDC020
:102CE000F9013496E491DE1AF901329685919491B6
:102CF000B7E0DB9E800D911D1124F90125913491DF
:102D00003B8B2A8BFC01259134912901FC013296E1
:102D1000C490319634913E87329614913196D49076
:102D20004981423058F0612E012E000C77088D2D1C
:102D30000D2C000C990B9987888704C0198618867A
:102D4000612C712CAA8DBB8DED91FC9111970284A1
:102D5000F385E02DCD010995B9818B2E912C689CCE
:102D6000C001699C900D789C900D1124FC01EA0D26
:102D7000FB1DFD87EC871A82712C612CE12F110F4E
:102D8000FF0B95012E0F3F1F3B872A87AC0CB11C10
:102D9000A5014E0F5F1F5F8B4E8BC1018D0D911DE5
:102DA000D7FC9A95998F888F9E85691608F065C023
:102DB000862D90E048855985480F591F489D900100
:102DC000499D300D589D300D1124D101A20FB31F24
:102DD000B98BA88BEC85FD85FD83EC83AA84BB842D
:102DE000DA80FA85DF1A288D398D280F391F3D8B3F
:102DF0002C8B8D2D8A0D4E895F89A416B506C1F1E5
:102E0000877041F4C2010196EA89FB89E40DF51D42
:102E100074902C0177FE21C0AA8DBB8DED91FC91A1
:102E2000B981B13061F40484F585E02D2E813F81B4
:102E30004C895D89B5018A8D9B8D09950EC00684EC
:102E4000F785E02DEE80FF8084019401488959893F
:102E50006C817D818A8D9B8D0995770CEFEFAE1A81
:102E6000BE0A2C813D81280D391D3D832C83C1CFA5
:102E70003A813C0D3A83639497CFAA8DBB8DED9137
:102E8000FC9111970688F789E02DCD016B960FB65E
:102E9000F894DEBF0FBECDBFDF91CF911F910F9190
:102EA000FF90EF90DF90CF90BF90AF909F908F906A
:102EB0007F906F905F904F903F902F9009946B960A
:102EC0000FB6F894DEBF0FBECDBFDF91CF911F913B
:102ED0000F91FF90EF90DF90CF90BF90AF909F90B9
:102EE0008F907F906F905F904F903F902F900895BC
:102EF0000F931F93CF93DF9377FF04C0260F371FE5
:102F000060E070E0DC011496CD91DC911597FB0137
:102F1000E20FF31FCE17DF071CF49E01261B370BB1
:102F2000121613060CF046C0FA0157FD3796DF0162
:102F3000E3E0B595A795EA95E1F7AC9FF001AD9F69
:102F4000F00DBC9FF00D11246E0F7F1FDC015E960B
:102F5000ED91FC915F97E60FF71F4770552781E0D1
:102F600090E001C0880F4A95EAF7482F013011051B
:102F700039F078F002301105E9F42E0F3F1F13C02D
:102F80002E0F3F1FE217F307A9F08081842B819356
:102F9000F9CF80952E0F3F1FE217F30759F090816C
:102FA00098239193F9CFE217F30721F080818427CA
:102FB0008193F9CFDF91CF911F910F910895EF92F7
:102FC000FF920F931F93CF93DF93EC0177FDA5C082
:102FD000EC80FD806E157F050CF09FC057FF04C08C
:102FE000240F351F40E050E08E819F81FA01E20FEF
:102FF000F31F8E179F071CF49C01241B350B121620
:1030000013060CF08AC0922F842F8695869586959C
:103010008E9DD0018F9DB00D11246A0F7B1FAE8D48
:10302000BF8DA60FB71F4770B1F188E0841B482FF2
:10303000682F70E0FB01E259F94FE491281798F4EA
:10304000621B71092FEF30E002C0359527956A9514
:10305000E2F7E2230130110549F078F00230110562
:1030600009F05BC00EC00130110519F48C91E82BFA
:103070000AC00130110508F049C0E0958C91E823A1
:1030800002C08C91E827EC93941708F446C02C8179
:103090003D81A20FB31FE92FE41BE830F8F00230A6
:1030A000110561F48E2F9C9190959C932C813D810C
:1030B000A20FB31F88508830B0F70FC081E0011510
:1030C000110509F480E081959E2F8C932C813D8120
:1030D000A20FB31F98509830C0F7E770EE23E9F0C5
:1030E000F0E0EA59F94FE4910130110539F048F068
:1030F0000230110591F48C91E82706C08C91E82BE1
:1031000003C0E0958C91E823EC9307C002301105D1
:1031100009F4B7CFAE0DBF1DBECFDF91CF911F9188
:103120000F91FF90EF900895CF93DF93282F30E019
:10313000F901EE5AF94F8491F901E25CF94FD4910B
:10314000F901E65DF94FC491CC2391F081110E9401
:10315000FB14EC2FF0E0EE0FFF1FE05EF94FA5919E
:10316000B491EC91ED2381E090E021F480E002C085
:1031700080E090E0DF91CF9108951F93CF93DF938C
:10318000282F30E0F901EE5AF94F8491F901E25C01
:10319000F94FD491F901E65DF94FC491CC23C1F008
:1031A000162F81110E94FB14EC2FF0E0EE0FFF1F91
:1031B000EA5EF94FA591B4919FB7F894111104C03C
:1031C0008C91D095D82302C0EC91DE2BDC939FBF6D
:1031D000DF91CF911F910895CF93DF9360E08091AD
:1031E000F8020E94BD188FE99FE00197F1F700C037
:1031F00000000E94C414C82FD0E0DC2FCC270E940E
:10320000C414C82B61E08091F8020E94BD18C2FD71
:1032100011C0BE0183E0769567958A95E1F780E05D
:1032200090E00E94302220E030E040E85EE30E941F
:10323000912204C060E070E080EC9FE7DF91CF91C5
:103240000895CF93DF9390E0FC01E25CF94F249165
:10325000FC01E65DF94F8491882361F190E0880FCD
:10326000991FFC01E45FF94FC591D491FC01EA5E1E
:10327000F94FA591B491611109C09FB7F894888165
:10328000209582238883EC912E230BC0623061F459
:103290009FB7F8948881322F309583238883EC91EF
:1032A0002E2B2C939FBF06C08FB7F894E8812E2B4E
:1032B00028838FBFDF91CF9108958F929F92AF9215
:1032C000BF92CF92DF92EF92FF926B017C010E943E
:1032D00024154B015C01C114D104E104F104F1F0A7
:1032E0000E942415DC01CB0188199909AA09BB09A0
:1032F000883E9340A105B10570F321E0C21AD108C0
:10330000E108F10888EE880E83E0981EA11CB11C2C
:10331000C114D104E104F10419F7DDCFFF90EF905F
:10332000DF90CF90BF90AF909F908F9008952FB770
:10333000F894609144037091450380914603909105
:1033400047032FBF08951F920F920FB60F921124BB
:103350002F933F938F939F93AF93BF938091440399
:1033600090914503A0914603B091470330914303E8
:1033700023E0230F2D3720F40196A11DB11D05C0B8
:1033800026E8230F0296A11DB11D209343038093CD
:10339000440390934503A0934603B0934703809161
:1033A000480390914903A0914A03B0914B030196C1
:1033B000A11DB11D8093480390934903A0934A0334
:1033C000B0934B03BF91AF919F918F913F912F91FC
:1033D0000F900FBE0F901F90189582E391E090938D
:1033E000FA028093F90280911703909118030097D5
:1033F00011F00C940D250895CF93DF93CDB7DEB770
:10340000A2970FB6F894DEBF0FBECDBF789484B5F7
:10341000826084BD84B5816084BD85B5826085BDD0
:1034200085B5816085BD80916E00816080936E005E
:103430001092810080918100826080938100809150
:103440008100816080938100809180008160809301
:1034500080008091B10084608093B1008091B000C1
:1034600081608093B00080917A00846080937A00BC
:1034700080917A00826080937A0080917A008160E6
:1034800080937A0080917A00806880937A0010920D
:10349000C100E0916902F0916A0282E08083E091CC
:1034A0006502F09166021082E0916702F091680275
:1034B0008FEC808310927102E0916D02F0916E02A8
:1034C00086E08083E0916B02F0916C0280818061E4
:1034D0008083E0916B02F0916C0280818860808330
:1034E000E0916B02F0916C02808180688083E091B2
:1034F0006B02F0916C0280818F7D80838091170335
:1035000090911803892B31F52091FF02309100032F
:10351000C901079697FD0796B3E095958795BA95EB
:10352000E1F72091FD023091FE024C01829EC00124
:10353000839E900D929E900D11240E94752490936D
:10354000180380931703892B29F486E995E00E94DC
:103550005810FFCF0E9468102091FF0230910003A5
:103560008091FD029091FE0221323105A4F0B90153
:103570006054710977FF02C06F5F7F4F7595679543
:103580008255910997FD019600E410E022E530E0B4
:1035900044E652E013C0B9016052710977FF02C0DE
:1035A0006F5F7F4F759567958357910997FD0196DA
:1035B00000E210E023E730E044E850E0959587957D
:1035C0000E94D11282E080931A038091150390919A
:1035D0001603892B59F18CE3809319031092E801AB
:1035E0001092E701109236021092580210923402A3
:1035F00081E08093330210920E0261E082E10E942A
:10360000BD1861E083E10E94BD188091B9008E7FF2
:103610008093B9008091B9008D7F8093B90088E4D0
:103620008093B80085E48093BC00BEC061E08091C7
:103630001E030E94211961E080911F030E9421193D
:1036400080911E03082E000C990BFC01E65DF94FDA
:10365000E491F0E0EE0FFF1FEA5EF94F25913491FF
:103660003093260320932503FC01E25CF94FE4919B
:10367000E0932B0380911F03082E000C990BFC0193
:10368000E65DF94FE491F0E0EE0FFF1FEA5EF94FBF
:10369000A591B491B0932803A0932703FC01E25CA9
:1036A000F94FE491E0932C038C91E82BEC938091FB
:1036B000130390911403892B09F434C01FB7F894B5
:1036C0008091ED01811127C0E4E3F6E08491E8E404
:1036D000F6E09491E82FF0E0EE0FFF1FE45FF94F62
:1036E000A591B491EC91E92321F461E08AE00E9474
:1036F000BD1861E08AE00E9421198CB580618CBD03
:103700008CB580648CBD61E08DE00E94211961E080
:103710008BE00E9421198091ED018F5F8093ED0174
:103720001FBF42C061E080911C030E94211961E02B
:1037300080911D030E94211980911C03082E000C0A
:10374000990BFC01E65DF94FE491F0E0EE0FFF1FED
:10375000EA5EF94F2591349130932203209321039F
:10376000FC01E25CF94FE491E093290380911D0391
:10377000082E000C990BFC01E65DF94FE491F0E096
:10378000EE0FFF1FEA5EF94FA591B491B0932403A9
:10379000A0932303FC01E25CF94FE491E0932A0338
:1037A0008C91E095E823EC938091200387FD1EC067
:1037B00061E00E94211961E0809120030E94BD1800
:1037C00061E070E080E090E00E945D1960E080912F
:1037D00020030E94BD186AE070E080E090E00E9443
:1037E0005D1961E0809120030E94BD18809115034E
:1037F00090911603892BD1F020912F033091300343
:10380000409131035091320360E074E284EF90E024
:103810000E944D24DA01C9014097A109B109B6956A
:10382000A795979587958093B80016C0809113034C
:1038300090911403892B31F080912D0390912E03E8
:103840000E94B60EE0912703F091280390818091A9
:103850002C0380958923808364E080E890E00E94B7
:10386000E4106091FF02615089EF92E00E94530ED4
:1038700064E08CE790E00E94E41080911A038130AC
:1038800011F064E101C060E189EF92E00E94530E03
:1038900064E088E790E00E94E4108091FD0290913E
:1038A000FE0280389105E9F48091FF0290910003B7
:1038B0008032910531F464E084E790E00E94E410E6
:1038C00029C08034910531F563E081E790E00E94E2
:1038D000E41080911A03813011F06FEC17C06FE98A
:1038E00015C080369105B1F48091FF0290910003DC
:1038F000409781F463E08EE690E00E94E4108091AE
:103900001A03813011F06FEA01C060E189EF92E0A3
:103910000E94530E69ED89EF92E00E94530E809150
:103920001A03813011F061EF01C062E289EF92E089
:103930000E94530E66E088E690E00E94E4108091B9
:10394000150390911603892BD1F020913303309108
:103950003403409135035091360360E074E284EF04
:1039600090E00E944D24DA01C9014097A109B109F4
:10397000B695A795979587958093B80011C0E0916B
:103980002703F0912803908180912C03892B808359
:103990008091130390911403892B11F00E944B0E18
:1039A0000E94991160ED77E080E090E00E945D193F
:1039B0000E94681061E084E00E94211961E085E0C6
:1039C0000E94211960E084E00E94BD1860E085E05B
:1039D0000E94BD1862E082E00E94211962E083E04B
:1039E0000E94211962E08CE00E94211927E83CE046
:1039F0003093010120930001809169008C7F8160E8
:103A000080936900E89A309303012093020180912A
:103A10006900837F846080936900E99A10920D02A7
:103A200010920C0280E795E00E9458108AE495E01D
:103A30000E94581084E295E00E94581084E1282EDC
:103A4000312C00910C0210910D020115110509F0A5
:103A500090C00E94681082E080930D03AA24A39472
:103A6000B12CB0920C03A0920B03B0920A03A09267
:103A70000903109206031092050310920803109296
:103A800007036AE571E089EF92E00E94950D80914D
:103A9000E9019091EA01A091EB01B091EC01BC0128
:103AA000CD01625E7F4F8F4F9F4F0E9432226B018C
:103AB0007C01609308027093090280930A0290933C
:103AC0000B028CEE95E00E943D10C701B6010E94EA
:103AD000F81310920603109205038FE190E0909383
:103AE0000803809307036091080270910902809196
:103AF0000A0290910B020E940D246B01770FEE08D1
:103B0000FF08F7FE0EC06DE289EF92E00E94B10B54
:103B100044275527BA014C195D096E097F092AE02F
:103B200003C02AE0B701A60189EF92E00E94AA0D26
:103B30008CE00E9494189093070280930602892BD0
:103B400079F4CC24C394D12CD0920D02C0920C02F3
:103B50001092E9011092EA011092EB011092EC012F
:103B60000E9499116AEF70E080E090E00E945D1978
:103B700099C30130110509F094C00E94681082E0D9
:103B800080930D0310930C0300930B0310930A030F
:103B90000093090310920603109205031092080384
:103BA0001092070364E671E089EF92E00E94950DA0
:103BB0001092060310920503309208032092070327
:103BC0006BE671E089EF92E00E94950DC090E901EB
:103BD000D090EA01E090EB01F090EC012AE0C20EF7
:103BE000D11CE11CF11C109206031092050348E25F
:103BF00050E050930803409307032AE0B701A60161
:103C000089EF92E00E94AA0D84ED95E00E943D109C
:103C1000C701B6010E9449158CE00E949418909348
:103C2000070280930602892B09F09ACFA0E6BAEE2C
:103C3000A70196010E944F236B017C016093020251
:103C40007093030280930402909305020E949719D7
:103C50006093FE017093FF01809300029093010234
:103C6000C701B6010E9449156091FE017091FF01E4
:103C700080910002909101020E94491561E085E067
:103C80000E94BD181092E9011092EA011092EB0116
:103C90001092EC0182E090E090930D0280930C0270
:103CA0005FCF0230110509F011C10E94971960938E
:103CB000FA017093FB018093FC019093FD018CE06D
:103CC0000E94941890930702809306020E9497190D
:103CD0000091F6011091F7012091F8013091F9015E
:103CE0004B015C01801A910AA20AB30A48EE8416BD
:103CF00043E09406A104B10490F06093F601709340
:103D0000F7018093F8019093F9010E94EC186093F9
:103D1000F2017093F3018093F4019093F5016091A7
:103D2000F2017091F3018091F4019091F5010E94EC
:103D3000F8138091FA019091FB01A091FC01B091E0
:103D4000FD014091FE015091FF01609100027091D0
:103D50000102841B950BA60BB70B409102025091F8
:103D600003026091040270910502481759076A071F
:103D70007B0730F08091060290910702892BB1F405
:103D80000E94681082E080930D0310920603109247
:103D90000503109208031092070364E771E089EFAE
:103DA00092E00E94950D82EC95E01AC160910802A4
:103DB0007091090280910A0290910B020E940D24D9
:103DC000CE0101960E94C0136091F2017091F3013F
:103DD0008091F4019091F5010E940D24CE010D9681
:103DE0000E94C013BE01635F7F4FCE0107960E9401
:103DF0002D0DCE0107960E94AE138C014D815E8180
:103E000069817A810E94CC0C811103C0C8010E9493
:103E1000FA0CB801CE0143960E942D0DCE010796F3
:103E20000E945413CE010D960E945413CE010196A8
:103E30000E9454130E94681082E080930D03109238
:103E400006031092050310920803109207036DE712
:103E500071E089EF92E00E94950D10920603109296
:103E600005033092080320920703BE016D5E7F4F69
:103E700089EF92E00E9459132091080230910902C3
:103E800040910A0250910B026091F2017091F3018E
:103E90008091F4019091F5010E942B2287FF05C0CB
:103EA00061E084E00E94BD180AC060E084E00E94E6
:103EB000BD1883E090E090930D0280930C02CE0138
:103EC00043960E9454130E949911ECC103301105CE
:103ED00009F0E8C10E9497196093FA017093FB0101
:103EE0008093FC019093FD018CE00E9494189093C4
:103EF0000702809306020E9497190091F601109123
:103F0000F7012091F8013091F9014B015C01801A11
:103F1000910AA20AB30A48EE841643E09406A1046B
:103F2000B10490F06093F6017093F7018093F8016B
:103F30009093F9010E94EC186093F2017093F301E1
:103F40008093F4019093F5016091F2017091F30177
:103F50008091F4019091F5010E94F8138090FA018C
:103F60009090FB01A090FC01B090FD018F8E98A273
:103F7000A9A2BAA24090FE015090FF0160900002F9
:103F800070900102C0900202D0900302E0900402FF
:103F9000F0900502D501C40184199509A609B70955
:103FA000C816D906EA06FB0630F080910602909109
:103FB0000702892B61F50E94681082E080930D034F
:103FC0001092060310920503109208031092070343
:103FD00064E771E089EF92E00E94950D80EB95E037
:103FE0000E94581060E085E00E94BD1860E084E007
:103FF0000E94BD180E94991160ED77E080E090E08A
:104000000E945D1910920D0210920C025CCF0E946A
:1040100097192091EE013091EF014091F0015091FC
:10402000F1014B015C01821A930AA40AB50AA501A9
:104030009401243631054105510508F444CF6093BD
:10404000EE017093EF018093F0019093F101C40CA5
:10405000D51CE61CF71C8F8C98A0A9A0BAA0C81884
:10406000D908EA08FB08C701B60120E83EEE46E39E
:1040700050E00E944D2429013A013A8F298FC7014F
:10408000B60120E63AEE40E050E00E944D24CA011D
:10409000B9012CE330E040E050E00E944D244B0198
:1040A0005C018B01C701B60128EE33E040E050E02F
:1040B0000E944D24CA01B9012CE330E040E050E0F9
:1040C0000E944D246B8F7C8F8D8F9E8F6091080294
:1040D0007091090280910A0290910B020E940D24B6
:1040E000CE0101960E94C0136091F2017091F3011C
:1040F0008091F4019091F5010E940D24CE010D965E
:104100000E94C013BE01635F7F4FCE0107960E94DD
:104110002D0DCE0107960E94AE137C014D815E816C
:1041200069817A810E94CC0C811103C0C7010E9471
:10413000FA0CB701CE0143960E942D0DCE010796D1
:104140000E945413CE010D960E945413CE01019685
:104150000E94541318861F821A8619861C861B8695
:1041600040E050E060E971E0CE0107960E940C0D3E
:10417000C98CDA8CCD2809F498C0B201CE01019621
:104180000E9476134D815E8169817A81CE01079606
:104190000E94CC0CCE0101960E94541368E871E095
:1041A000CE0107960E946713B401CE0101960E94CA
:1041B00076134D815E8169817A81CE0107960E94D6
:1041C000CC0CCE0101960E9454136BE871E0CE0135
:1041D00007960E9467136B8D7C8DCE0101960E941D
:1041E00076134D815E8169817A81CE0107960E94A6
:1041F000CC0CCE0101960E9454136BE771E0CE0106
:1042000007960E9467130E94681082E080930D0356
:1042100010920603109205031092080310920703F0
:10422000BE01695F7F4F89EF92E00E94591310929F
:104230000603109205033092080320920703BE0183
:104240006D5E7F4F89EF92E00E945913BE01695F56
:104250007F4F89E592E00E9459136EE871E089E58D
:1042600092E00E94950D2091080230910902409140
:104270000A0250910B026091F2017091F30180915A
:10428000F4019091F5010E942B2287FF02C061E0AA
:1042900001C060E084E00E94BD18CE0107960E9434
:1042A00054130DCE0E94E306CCCB012B09F493CF1F
:1042B0007BCFCF93DF93E9E5F2E01382128248EEE1
:1042C00053E060E070E044835583668377838EE03B
:1042D00091E09183808385EC90E09587848784ECDE
:1042E00090E09787868780EC90E0918B808B81ECC3
:1042F00090E0938B828B82EC90E0958B848B86ECA4
:1043000090E0978B868B118E128E138E148EA7E3FE
:10431000B3E013961C921E92129714964D935D93E0
:104320006D937C93179780E291E011969C938E9306
:10433000E9EFF2E01382128220E830E03583248333
:1043400080E490E0978386833187208793878287F4
:10435000158A158614861786168681E0848B2FEFC2
:104360003FEF338B228B318B208B868B178A118EFC
:10437000108E82E391E091838083138E128EB58F2D
:10438000A48F178E168E8FEF83A384A385A386A395
:1043900087A380E584AB15AA80E89AE1A6E0B0E0A7
:1043A00086AB97ABA0AFB1AF80EA96E8A1E0B0E0F2
:1043B00082AF93AFA4AFB5AFC6EFD2E089E08883F8
:1043C0008AE08A838BE0898361E08AE00E94211978
:1043D00061E088810E94211960E089810E94211991
:1043E00061E08A81DF91CF910C94BD18BB274A30E0
:1043F00031F4992322F4BDE2909581959F4F0C945E
:104400000222BB27FB015527AA27880F991FAA1F45
:10441000A41710F0A41B83955051B9F7A05DAA33DF
:1044200008F0A95DA193009779F7B111B1931192AA
:10443000CB010C941B22DC01FC01672F71917723C7
:10444000E1F7329704C07C916D9370836291AE174F
:10445000BF07C8F308950E946D2208F481E0089513
:10446000E89409C097FB3EF490958095709561950E
:104470007F4F8F4F9F4F9923A9F0F92F96E9BB27C4
:104480009395F695879577956795B795F111F8CF40
:10449000FAF4BB0F11F460FF1BC06F5F7F4F8F4FAB
:1044A0009F4F16C0882311F096E911C0772321F0A1
:1044B0009EE8872F762F05C0662371F096E8862F39
:1044C00070E060E02AF09A95660F771F881FDAF790
:1044D000880F9695879597F90895990F0008550FBD
:1044E000AA0BE0E8FEEF16161706E807F907C0F07A
:1044F00012161306E407F50798F0621B730B840B82
:10450000950B39F40A2661F0232B242B252B21F45B
:1045100008950A2609F4A140A6958FEF811D811DFB
:1045200008950E94A4220C9415230E94072338F0BA
:104530000E940E2320F0952311F00C94FE220C947F
:10454000042311240C9449230E94262370F3959F81
:10455000C1F3950F50E0551F629FF001729FBB277A
:10456000F00DB11D639FAA27F00DB11DAA1F649F16
:104570006627B00DA11D661F829F2227B00DA11DC9
:10458000621F739FB00DA11D621F839FA00D611D4F
:10459000221F749F3327A00D611D231F849F600D70
:1045A000211D822F762F6A2F11249F5750409AF099
:1045B000F1F088234AF0EE0FFF1FBB1F661F771F25
:1045C000881F91505040A9F79E3F510580F00C94F0
:1045D000FE220C9449235F3FE4F3983ED4F3869582
:1045E00077956795B795F795E7959F5FC1F7FE2B90
:1045F000880F911D9695879597F9089597F99F676C
:1046000080E870E060E008959FEF80EC089500245A
:104610000A941616170618060906089500240A9427
:1046200012161306140605060895092E0394000CAD
:1046300011F4882352F0BB0F40F4BF2B11F460FF3C
:1046400004C06F5F7F4F8F4F9F4F089557FD905865
:10465000440F551F59F05F3F71F04795880F97FB46
:10466000991F61F09F3F79F0879508951216130600
:104670001406551FF2CF4695F1DF08C0161617062F
:104680001806991FF1CF8695710561050894089564
:10469000E894BB2766277727CB0197F908950E94F6
:1046A0009123A59F900DB49F900DA49F800D911D07
:1046B000112408952F923F924F925F926F927F92B2
:1046C0008F929F92AF92BF92CF92DF92EF92FF9222
:1046D0000F931F93CF93DF93CDB7DEB7CA1BDB0BCE
:1046E0000FB6F894DEBF0FBECDBF09942A88398873
:1046F00048885F846E847D848C849B84AA84B9847A
:10470000C884DF80EE80FD800C811B81AA81B98185
:10471000CE0FD11D0FB6F894DEBF0FBECDBFED0199
:104720000895A29FB001B39FC001A39F700D811D8A
:104730001124911DB29F700D811D1124911D0895AA
:104740005058BB27AA270E94B8230C9415230E9417
:10475000072338F00E940E2320F039F49F3F19F40C
:1047600026F40C9404230EF4E095E7FB0C94FE224F
:10477000E92F0E94262358F3BA17620773078407AC
:10478000950720F079F4A6F50C9448230EF4E095F3
:104790000B2EBA2FA02D0B01B90190010C01CA01FB
:1047A000A0011124FF27591B99F0593F50F4503EA6
:1047B00068F11A16F040A22F232F342F4427585F98
:1047C000F3CF469537952795A795F0405395C9F7B0
:1047D0007EF41F16BA0B620B730B840BBAF0915068
:1047E000A1F0FF0FBB1F661F771F881FC2F70EC007
:1047F000BA0F621F731F841F48F4879577956795DA
:10480000B795F7959E3F08F0B0CF9395880F08F0C5
:104810009927EE0F9795879508950E941424689420
:10482000B1110C94492308950E942E2388F09F57BC
:1048300098F0B92F9927B751B0F0E1F0660F771FC4
:10484000881F991F1AF0BA95C9F714C0B13091F0BA
:104850000E944823B1E008950C944823672F782FD5
:104860008827B85F39F0B93FCCF38695779567957F
:10487000B395D9F73EF490958095709561957F4FEB
:104880008F4F9F4F08950E946D2208F48FEF089577
:104890000E946D22880B990B0895A1E21A2EAA1B83
:1048A000BB1BFD010DC0AA1FBB1FEE1FFF1FA217E0
:1048B000B307E407F50720F0A21BB30BE40BF50BDD
:1048C000661F771F881F991F1A9469F76095709566
:1048D000809590959B01AC01BD01CF010895EE0F2D
:1048E000FF1F0590F491E02D09940F931F93CF9330
:1048F000DF938230910510F482E090E0E0914E0366
:10490000F0914F0320E030E0A0E0B0E0309719F1E3
:10491000408151810281138148175907C8F08417DB
:10492000950769F4109731F012960C93129713962D
:104930001C9327C000934E0310934F0322C02115F0
:10494000310519F04217530718F49A01BD01EF0120
:10495000DF01F801DBCF21153105F9F0281B390BF8
:104960002430310580F48A819B816115710521F025
:10497000FB019383828304C090934F0380934E0383
:10498000FE01329644C0FE01E20FF31F8193919322
:1049900022503109398328833AC020914C03309149
:1049A0004D03232B41F420910601309107013093F0
:1049B0004D0320934C0320910401309105012115F2
:1049C000310541F42DB73EB74091080150910901DE
:1049D000241B350BE0914C03F0914D03E217F307D4
:1049E000A0F42E1B3F0B2817390778F0AC014E5F5F
:1049F0005F4F2417350748F04E0F5F1F50934D034C
:104A000040934C038193919302C0E0E0F0E0CF012A
:104A1000DF91CF911F910F910895CF93DF9300976E
:104A200009F481C0FC01329713821282A0914E03D7
:104A3000B0914F03109781F420813181820F931F31
:104A400020914C0330914D032817390751F5F0930D
:104A50004D03E0934C0367C0ED0120E030E0CE173A
:104A6000DF0740F44A815B819E0141155105F1F059
:104A7000EA01F5CFD383C28340815181840F951F12
:104A8000C817D90759F488819981840F951F029618
:104A9000918380838A819B81938382832115310551
:104AA00029F4F0934F03E0934E033DC0E901FB83EB
:104AB000EA8349915991C40FD51FEC17FD0761F4A2
:104AC00080819181840F951F0296E90199838883E3
:104AD000828193819B838A83E0E0F0E012968D913E
:104AE0009C911397009719F0FD01DC01F7CF8D9190
:104AF0009C9111979D012E5F3F4F820F931F209134
:104B00004C0330914D032817390769F4309729F485
:104B100010924F0310924E0302C013821282B09380
:104B20004D03A0934C03DF91CF910895A0E0B0E036
:104B3000ECE9F5E20C945E23EC01009721F4CB0143
:104B40000E947524B4C0FC01E60FF71F9C0122509F
:104B50003109E217F30708F4A8C0D9010D911C919F
:104B6000119706171707B0F00530110508F49BC020
:104B7000C80104978617970708F495C002501109D9
:104B8000061B170B019311936D937C93CF010E9429
:104B90000D2589C05B01A01AB10A4C01800E911E3F
:104BA000A0914E03B0914F03612C712CE12CF12C9C
:104BB000109709F446C08D919C911197A815B905DD
:104BC000B1F56C0142E0C40ED11CCA14DB0478F1CB
:104BD0004C018A189B08640142E0C40ED11C129655
:104BE000BC9012971396AC91B5E0CB16D10440F06F
:104BF000B282A38391828082D9016D937C9309C094
:104C00000E5F1F4F800F911FF90191838083EB2D61
:104C1000FA2FE114F10431F0D7011396FC93EE93CF
:104C2000129741C0F0934F03E0934E033CC06816C7
:104C3000790608F43C017D0112960D90BC91A02DDF
:104C4000B7CF80914C0390914D0388169906E1F4FB
:104C500066167706C8F480910401909105010097CB
:104C600041F48DB79EB74091080150910901841B12
:104C7000950BE817F907C8F4F0934D03E0934C0344
:104C8000F901718360830FC0CB010E9475247C0100
:104C9000009759F0A801BE010E946126CE010E9432
:104CA0000D25C70104C0CE0102C080E090E0CDB761
:104CB000DEB7EEE00C947A2381E090E0F8940C9457
:104CC0007826FB01DC0102C001900D92415050405A
:104CD000D8F70895DC0101C06D9341505040E0F7D2
:104CE0000895FB01DC0101900D920020E1F7089589
:104CF00015E0CCEBD5E004C0FE010E946F242196A4
:0A4D0000CD3BD107C9F7F894FFCFAF
:104D0A00E705E705000050038000000000007A066E
:104D1A00E8051206C1064306210635060000000012
:104D2A00C60A990AF60A6009910A820A740A0000F8
:104D3A000000B10BE805F60AF50AED0660098909D3
:104D4A0061097D09710990096009AB07B90E220B47
:104D5A00660BA9088C081F08C007537568752028B8
:104D6A0043293A0044757261736900286D656E695A
:104D7A0074293A0046696E69736865640050726501
:104D8A0068656174696E67006A20006D20000D0A0B
:104D9A0000202D3E20006E616E00696E66006F76FF
:024DAA006600A1
:107800000C94343C0C94513C0C94513C0C94513CE1
:107810000C94513C0C94513C0C94513C0C94513CB4
:107820000C94513C0C94513C0C94513C0C94513CA4
:107830000C94513C0C94513C0C94513C0C94513C94
:107840000C94513C0C94513C0C94513C0C94513C84
:107850000C94513C0C94513C0C94513C0C94513C74
:107860000C94513C0C94513C11241FBECFEFD8E036
:10787000DEBFCDBF11E0A0E0B1E0ECE9FFE702C060
:1078800005900D92A230B107D9F712E0A2E0B1E065
:1078900001C01D92AD30B107E1F70E942D3D0C945F
:1078A000CC3F0C94003C982F959595959595959582
:1078B000905D8F708A307CF0282F295A8091C0000B
:1078C00085FFFCCF9093C6008091C00085FFFCCF60
:1078D0002093C6000895282F205DF0CF982F809127
:1078E000C00085FFFCCF9093C6000895EF92FF92F1
:1078F0000F931F93EE24FF2487018091C00087FD22
:1079000017C00894E11CF11C011D111D81E4E8164B
:1079100082E4F8068FE0080780E0180770F3E09132
:107920000401F091050109958091C00087FFE9CF1E
:107930008091C6001F910F91FF90EF9008950E94D3
:10794000763C982F8091C00085FFFCCF9093C600B5
:1079500091362CF490330CF09053892F089597555D
:10796000892F08951F930E949F3C182F0E949F3CCF
:107970001295107F810F1F9108951F93182F882350
:1079800021F00E94763C1150E1F71F9108951F935A
:10799000182F0E94763C803249F0809103018F5F5E
:1079A000809303018530C1F01F9108958091C0003C
:1079B00085FFFCCF84E18093C6008091C00085FFE5
:1079C000FCCF1093C6008091C00085FFFCCF80E102
:1079D0008093C6001F910895E0910401F091050184
:1079E00009951F9108950E94763C803241F0809164
:1079F00003018F5F80930301853081F008958091AA
:107A0000C00085FFFCCF84E18093C6008091C00058
:107A100085FFFCCF80E18093C6000895E0910401CA
:107A2000F09105010995089540E951E08823A1F0FE
:107A30002D9A28EE33E0FA013197F1F721503040CA
:107A4000D1F72D9828EE33E0FA013197F1F7215064
:107A50003040D1F7815061F708953F924F925F9285
:107A60006F927F928F929F92AF92BF92CF92DF924E
:107A7000EF92FF920F931F93CF93DF93000080E16B
:107A80008093C4001092C50088E18093C10086E015
:107A90008093C2005098589A259A81E00E94143D24
:107AA00024E1F22E9EE1E92E85E9D82E0FE0C02ECA
:107AB00010E1B12EAA24A394B1E49B2EA6E58A2E50
:107AC000F2E57F2EE0E26E2E79E4572E63E5462E36
:107AD00050E5352E0E94763C8033B1F18133B9F107
:107AE000803409F46FC0813409F476C0823409F41B
:107AF00085C0853409F488C0803531F1823521F1A3
:107B0000813511F1853509F485C0863509F48DC0BC
:107B1000843609F496C0843709F403C1853709F423
:107B200072C1863709F466C0809103018F5F80932C
:107B30000301853079F6E0910401F0910501099582
:107B40000E94763C803351F60E94F33CC3CF0E94E2
:107B5000763C803249F78091C00085FFFCCFF092DF
:107B6000C6008091C00085FFFCCF9092C600809136
:107B7000C00085FFFCCF8092C6008091C00085FFC9
:107B8000FCCF7092C6008091C00085FFFCCF609250
:107B9000C6008091C00085FFFCCF5092C600809146
:107BA000C00085FFFCCF4092C6008091C00085FFD9
:107BB000FCCF3092C6008091C00085FFFCCFB09210
:107BC000C60088CF0E94763C863808F4BDCF0E945C
:107BD000763C0E94F33C7ECF0E94763C803809F4CC
:107BE0009CC0813809F40BC1823809F43CC1883942
:107BF00009F48FC080E00E94C73C6CCF84E10E94F2
:107C0000BD3C0E94F33C66CF85E00E94BD3C0E94D3
:107C1000F33C60CF0E94763C809306010E94763C44
:107C2000809307010E94F33C55CF0E94763C80333D
:107C300009F41DC183E00E94BD3C80E00E94C73C66
:107C400049CF0E94763C809309020E94763C809343
:107C5000080280910C028E7F80930C020E94763C79
:107C6000853409F415C18091080290910902892B8D
:107C700089F000E010E00E94763CF801E85FFE4FDA
:107C800080830F5F1F4F80910802909109020817AF
:107C9000190788F30E94763C803209F045CF809125
:107CA0000C0280FF01C16091060170910701660F0F
:107CB000771F7093070160930601A0910802B091AD
:107CC00009021097C9F0E8E0F1E09B01AD014E0F09
:107CD0005F1FF999FECF32BD21BD819180BDFA9A17
:107CE000F99A2F5F3F4FE417F50799F76A0F7B1F4B
:107CF00070930701609306018091C00085FFFCCF5F
:107D0000F092C6008091C00085FFFCCFB092C60003
:107D1000E1CE83E00E94C73CDDCE82E00E94C73CFA
:107D2000D9CE0E94763C809309020E94763C8093D3
:107D300008028091060190910701880F991F909386
:107D40000701809306010E94763C853409F4A6C0A1
:107D500080910C028E7F80930C020E94763C8032D0
:107D600009F0B8CE8091C00085FFFCCFF092C6002C
:107D7000609108027091090261157105B9F140E046
:107D800050E080910C02A82FA170B82FB27011C0E2
:107D9000BB2309F45CC0E0910601F0910701319624
:107DA000F0930701E09306014F5F5F4F46175707B7
:107DB000E8F4AA2369F3F999FECF209106013091E6
:107DC000070132BD21BDF89A90B58091C00085FFB2
:107DD000FCCF9093C6002F5F3F4F30930701209355
:107DE00006014F5F5F4F4617570718F38091C00099
:107DF00085FDE5CE8091C00085FFF8CFE0CE81E023
:107E00000E94C73C67CE0E94763C803209F08CCE3F
:107E10008091C00085FFFCCFF092C6008091C00029
:107E200085FFFCCFE092C6008091C00085FFFCCFAB
:107E3000D092C6008091C00085FFFCCFC092C600E2
:107E40008091C00085FFFCCFB092C60043CEE09188
:107E50000601F091070194918091C00085FFFCCF4D
:107E60009093C6009CCF80E10E94C73C33CE0E9415
:107E7000763C0E94763C182F0E94763C112309F430
:107E800083C0113009F484C08FE00E94C73C22CE29
:107E900080910C02816080930C02E5CE80910C02EF
:107EA000816080930C0259CF809107018823880F4D
:107EB000880B8A2180930B02809106019091070123
:107EC000880F991F90930701809306018091080203
:107ED00080FF09C080910802909109020196909359
:107EE000090280930802F894F999FECF1127E091D6
:107EF0000601F0910701C8E0D1E08091080290915D
:107F00000902103091F40091570001700130D9F34B
:107F100003E000935700E89500915700017001308D
:107F2000D9F301E100935700E89509901990009169
:107F3000570001700130D9F301E000935700E89534
:107F40001395103498F011270091570001700130FB
:107F5000D9F305E000935700E895009157000170B0
:107F60000130D9F301E100935700E895329602976A
:107F700009F0C7CF103011F00296E5CF112480919F
:107F8000C00085FFB9CEBCCE8EE10E94C73CA2CD19
:0C7F900085E90E94C73C9ECDF894FFCF0D
:027F9C00800063
:040000030000780081
:00000001FF
